:020000040800F2
:10000000000400200900000800F019F800F054F87E
:1000100000F06AF800F056F800F066F800F058F8C2
:1000200000F062F800F05AF800F05EF800F038F8DE
:1000300000F05AF800F03AF800F056F8E6E703B599
:10004000334840F01C0032490860324800F4702008
:10005000304908602F4840F001002E4908604FF0F9
:1000600010002D4908602D4800F0F0002B49086071
:100070002A4840F02000294908604FF400702849C0
:100080000860284800F0704026490860254840F084
:100090000050244908604FF400402349086003BD24
:1000A00003B54FF000001C49086003BD03B54FF0D5
:1000B00010001949086003BD03B54FF0000018494E
:1000C000086003BD03B54FF400701549086003BD17
:1000D00003B54FF000001449086003BD03B54FF4A9
:1000E00000401149086003BD03B500200021002233
:1000F000401CB0F5A57FFBD30020491CB1F5A57FBE
:10010000F6D300200021521C0F2AF1D303BD00BFFB
:1001100018100240000801400C080140040C014086
:0C0120000C0C0140041001400C100140C8
:0400000508000009E6
:00000001FF
