:020000040800F2
:100000007006002089010008F30A0008210A000890
:10001000F10A00088F020008530B000800000000DE
:10002000000000000000000000000000F70A0008C7
:100030009102000800000000F50A0008F90A000813
:10004000A3010008A3010008A3010008A301000800
:10005000A3010008A3010008A3010008A3010008F0
:10006000A3010008A3010008A3010008A3010008E0
:10007000A3010008A3010008A3010008A3010008D0
:10008000A3010008A3010008A3010008A3010008C0
:10009000A3010008A3010008A3010008A3010008B0
:1000A000A3010008A3010008A3010008A3010008A0
:1000B000A3010008A3010008A3010008A301000890
:1000C000A3010008A3010008A3010008A301000880
:1000D000A3010008A3010008A3010008A301000870
:1000E000A3010008A3010008A301000800F002F822
:1000F00000F03AF80AA090E8000C82448344AAF188
:100100000107DA4501D100F02FF8AFF2090EBAE885
:100110000F0013F0010F18BFFB1A43F0010318473B
:10012000F80A0000180B0000103A24BF78C878C104
:10013000FAD8520724BF30C830C144BF04680C60ED
:10014000704700000023002400250026103A28BF35
:1001500078C1FBD8520728BF30C148BF0B60704739
:100160001FB51FBD10B510BD00F058F81146FFF7C0
:10017000F7FF00F0FFFC00F076F803B4FFF7F2FFA2
:1001800003BC00F07DF8000009488047094800479B
:10019000FEE7FEE7FEE7FEE7FEE7FEE7FEE7FEE737
:1001A000FEE7FEE704480549054A064B7047000094
:1001B000510B0008ED0000087000002070060020C0
:1001C00070020020700200204FF0000200B51346BC
:1001D00094469646203922BFA0E80C50A0E80C5067
:1001E000B1F12001BFF4F7AF090728BFA0E80C5018
:1001F00048BF0CC05DF804EB890028BF40F8042B11
:1002000008BF704748BF20F8022B11F0804F18BF7D
:1002100000F8012B7047704770477047754600F033
:100220002BF8AE4605006946534620F00700854688
:1002300018B020B5FFF7B6FFBDE820404FF000062C
:100240004FF000074FF000084FF0000B21F00701BE
:10025000AC46ACE8C009ACE8C009ACE8C009ACE801
:10026000C0098D46704710B50446AFF300802046A4
:10027000BDE81040FFF781BF004870471000002024
:1002800001491820ABBEFEE7260002007047FEE7DA
:100290007047000070B5044600F004F90546601C84
:1002A00002D004480078044400F0FCF8401BA0424F
:1002B000FAD370BD000000202DE9F84FDFF8B891A7
:1002C000002409F1040A0AF1040B23460F270BF15D
:1002D000040EC9E00125A5402A40AA427DD1674EFF
:1002E000D1F804C0ACEB0608B44532D014DCBCF144
:1002F000030F3AD009DCBCF1000F2AD0BCF1010F8A
:100300001CD0BCF1020F31D11DE0BCF1110F17D090
:10031000BCF1120F2AD119E0B8F5881F19D006DCFC
:10032000B8F5803F15D0B8F5801F1FD111E0B8F5A2
:10033000001F0ED0B8F5041F18D10AE0CB6815E0F5
:10034000CB681B1D12E0CB6808330FE0CB680C3381
:100350000CE08B682BB1012B4FF0080303D04561F3
:1003600004E0042302E0056100E00023FF2A01D835
:10037000064601E000F104064FEA840501D9A5F123
:100380002005D6F8008007FA05FC28EA0C0803FAD5
:1003900005F548EA0508C6F800804D68ED0062D50D
:1003A000374DAE6946F00106AE61AD6924F0030633
:1003B00005F001050095334D06EB050CDCF80850FF
:1003C000A607360F07FA06F825EA0805DFF8B88011
:1003D000404503D14FF0000817E044E0DFF8AC805F
:1003E000404502D14FF001080FE0DFF8A4804045FE
:1003F00002D14FF0020808E0DFF89880404502D1B2
:100400004FF0030801E04FF0040808FA06F848EA44
:100410000508CCF808804D68D9F80060ED034D461A
:1004200001D5164300E096432E604D68DAF800606F
:10043000AD03554601D5164300E096432E604D6846
:10044000DBF80060ED025D4601D5164300E09643FF
:100450002E604D68DEF80060AD02754601D516438A
:1004600000E096432E60641C0D682A46E5407FF448
:1004700031AFBDE8F88F000000040140000011100A
:10048000001002400000014000080140000C014043
:1004900000100140001401400AB1016170470904D5
:1004A000FBE7000001488068704700000000002062
:1004B0000248816802781144816070470000002082
:1004C00070B50D4D04464FF47A712878B1FBF0F009
:1004D0000A490968B1FBF0F000F08EFA48B9102C17
:1004E00007D200222146501E00F00AF800206C605E
:1004F00070BD012070BD0000000000200C00002035
:10050000F0B40E4B1B680C46C3F30223C3F107057E
:10051000042D00D90425191D072901D2002300E06C
:10052000DB1E012606FA05F1491E214099409E4036
:10053000761E16403143F0BC00F00CBB0CED00E021
:100540002DE9F0470F46050061D0434E306800F0BA
:100550000700B84209D2306820F007003843306005
:10056000306800F00700B84251D128683B4C810741
:1005700012D5400703D5606840F4E06060602878D9
:10058000000703D5606840F4605060606068A96847
:1005900020F0F000084360602878C00728D0686821
:1005A000012810D02168022810D0890700292EDAEE
:1005B000616821F0030101436160FFF773FF80462A
:1005C00041F288390DE021688903EFE78901EDE701
:1005D000FFF768FFA0EB0801494502D90320BDE8F9
:1005E000F0876068696800F00C00B0EB810FEFD114
:1005F000306800F00700B8420BD9306820F00700DF
:1006000038433060306800F00700B84201D0012064
:10061000E5E72878400705D56068E96820F4E060E0
:10062000084360602878000706D56068296920F4CF
:10063000605040EAC100606000F018F86168084A44
:10064000C1F30311515CC8400649086006480068C0
:10065000FFF736FF0020C2E70020024000100240F2
:10066000080C00080C0000200400002012A185B036
:100670000FC98DE80F0014A0144A00680490516857
:10068000134801F00C03042B10D0082B0ED1C1F33A
:100690008343C9031DF803000AD5516804AAC1F3B6
:1006A0004041515C0A4A5043B0FBF1F005B070473D
:1006B00008494843FAE70000020304050607080951
:1006C0000A0B0C0D0E0F101001020000001002406A
:1006D00000127A0000093D002DE9F84F040070D0A7
:1006E0002078C04DC00749D06868C0F38100012858
:1006F00007D06868C0F38100022809D16868C00388
:1007000006D52868800339D560680028E7D035E031
:100710006068B0F5803F0BD010B1B0F5A02F11D0BC
:10072000286820F480302860286820F4802002E0C7
:10073000286840F480302860606890B1FFF7B2FE0E
:1007400006460AE0286840F480202860F0E700BFF1
:10075000FFF7A8FE801B642873D828688003F7D5AC
:100760000CE0FFF79FFE064605E000BFFFF79AFE8C
:10077000801B6428F0D828688003F7D420789A4E2C
:1007800080074FF001094FF0000839D5686810F074
:100790000C0F07D06868C0F38100022809D168688F
:1007A000C00306D42868800714D52069012808D121
:1007B00010E02069B0B1C6F80090FFF773FE07465D
:1007C00005E00AE1FFF76EFEC01B0228C4D82868C6
:1007D0008007F7D52868616920F0F80040EAC10079
:1007E00028600DE0C6F80080FFF75CFE074604E0D5
:1007F000FFF758FEC01B022823D828688007F7D4CB
:10080000207800072CD57948A169D9B1C0F80090AB
:10081000FFF748FE074604E0FFF744FEC01B02282E
:100820000FD8686A8007F7D571484FF4FA5100680D
:10083000B0FBF1F0009000BF0098411E0091FAD289
:100840000EE080E0C0F80080FFF72CFE074604E0D1
:10085000FFF728FEC01B022875D8686A8007F7D406
:100860002078400760D5E8690027C00008D4E8690F
:1008700040F08050E861E869012700F08050009066
:100880005C480168C90513D40168834641F480714E
:100890000160FFF707FE824606E000BFFFF702FE99
:1008A000A0EB0A0064284ED8DBF80000C005F5D59F
:1008B000E06801280AD008B1052813D0286A20F082
:1008C00001002862286A20F0040002E0286A40F053
:1008D00001002862E06841F2883B98B1FFF7E2FD31
:1008E00082460BE0286A40F004002862EEE700BF71
:1008F000FFF7D8FDA0EB0A0159455AD8286A8007AE
:10090000F6D50CE0FFF7CEFD824605E0FFF7CAFD05
:10091000A0EB0A0159454CD8286A8007F6D41FB1CC
:10092000E86920F08050E861E06988B36968C1F344
:100930008101022944D00228C6F8608004D0FFF764
:10094000B1FD044638E034E0FFF7ACFD074604E0B3
:10095000FFF7A8FDC01B02282BD828688001F7D418
:10096000206AB0F5803F05D16868A16820F40030A6
:1009700008436860D4E908010843696821F47411E8
:1009800008436860C6F86090FFF78CFD044606E0F7
:1009900025E000BFFFF786FD001B022809D8286864
:1009A0008001F7D51BE000BFFFF77CFD001B02288C
:1009B00002D90320BDE8F88F28688001F4D40EE046
:1009C0000128F7D06868226A00F48031914204D18E
:1009D000616A00F47010884201D00120EAE700202B
:1009E000E8E700000010024000004242800442425A
:1009F0000C0000200070004010B5401EB0F1807F58
:100A000001D3012010BD4FF0E02460610F21601779
:100A100000F0A0F80020A06107202061002010BD98
:100A2000FEE700002DE9F04786B000242C48009432
:100A3000019402940394816941F0100181618169FC
:100A400001F010010491816941F020018161816907
:100A500001F020010491816941F004018161816903
:100A600001F004010491816941F00801816180690C
:100A7000012200F00800DFF86C80D50304902946BD
:100A80004046FFF709FDDFF860900122102148463B
:100A9000FFF702FD0122DFF854A057023946504605
:100AA000FFF7FAFC0095022601250396CDE90154D3
:100AB00069464046FFF700FC1020CDE90005CDE96E
:100AC000024669464846FFF7F7FB00970396CDE9D3
:100AD000015469465046FFF7EFFB06B0BDE8F087CA
:100AE000001002400010014000080140000C0140CD
:100AF000FEE7FEE770477047FFF7DABC30B58FB00E
:100B000028216846FFF760FB14210AA8FFF75CFB69
:100B10000120022504900095102005900024CDE9C5
:100B2000075468460994FFF7D7FD08B172B6FEE78F
:100B30000F200A90CDE90B540D9400210AA80E94C1
:100B4000FFF7FEFC002801D072B6FEE70FB030BD03
:100B50007047FEE70907090E002804DB00F1E020DA
:100B600080F80014704700F00F0000F1E02080F8DA
:100B7000141D7047FFF7C2FFFFF754FF1F4C204EB4
:100B80006515DFF88080AF014FF47A7900221021DB
:100B90002046FFF781FC012229463046FFF77CFC06
:100BA000012239464046FFF777FC4846FFF772FBC3
:100BB000012210212046FFF76FFC00222946304613
:100BC000FFF76AFC012239464046FFF765FC4846BC
:100BD000FFF760FB012210212046FFF75DFC012298
:100BE00029463046FFF758FC002239464046FFF7B9
:100BF00053FC4846FFF74EFBC8E7000000080140E1
:100C0000000C014000100140000000000000000046
:100C10000102030406070809380C00080000002040
:100C20001000000028010008480C000810000020F7
:100C300060060000440100080100000010000000F0
:080C4000000000000024F40094
:04000005080000ED02
:00000001FF
