:020000040800F2
:100000000050002055000008F1010008F30100082D
:1000100000000000000000000000000000000000E0
:1000200000000000000000000000000000000000D0
:10003000000000000000000000000000F5010008C2
:1000400000000000000000000000000000000000B0
:10005000000000006F48016841F4803101600168D0
:1000600011F40031FBD0016841F4003101606A48AD
:100070004FF0320101606948016841F4EA1141F42E
:10008000806101606348016841F08071016001682E
:1000900011F00071FBD06148016841F4EA1141F4AC
:1000A000806141F0020101605D4844F21401016089
:1000B0005C48016841F0405121F0404101605A48DC
:1000C000016841F0300141F0800121F04001016000
:1000D000564840F271210160554842F20C0101601E
:1000E000544842F22831016053484FF00301016047
:1000F000524880F309884FF0030080F314884FF0D2
:1001000000014F4801604F4801604F4801604F486F
:1001100001604F4801604A48016811F0020FFAD0AF
:100120004C484FF00001016000F047F84FF04800E4
:1001300000F039F84FF0650000F035F84FF06C0032
:1001400000F031F84FF06C0000F02DF84FF06F0028
:1001500000F029F84FF0200000F025F84FF077006C
:1001600000F021F84FF0690000F01DF84FF06E002C
:1001700000F019F84FF0640000F015F84FF06F0030
:1001800000F011F84FF0770000F00DF84FF0730019
:1001900000F009F84FF0210000F005F84FF00A00D8
:1001A00000F001F8B7E70FB42B4A10602B4A126831
:1001B00012F0400FFAD00FBC70470FB4204801680E
:1001C00011F0010F09D026484FF0000101602548C9
:1001D000016841F08001016008E021484FF0010111
:1001E00001602148016841F0800101600FBC704747
:1001F000704770471648016801F101010160B1F5CF
:10020000FA7F06D34FF00001016012484FF0010160
:1002100001607047001002400020024004100240BC
:100220001810024000100140040801400838014045
:100230000C38014014E000E010E000E0004E002027
:100240000002002004020020080200200C0200200E
:100250001002002004400022043801400038014010
:0C0260000040002214100140101001406A
:04000005080000559A
:00000001FF
