:020000040800F2
:100000000004002001010008090100080B0100089C
:100010000D0100080F010008110100080000000098
:1000200000000000000000000000000013010008B4
:100030001501000800000000170100081901000860
:100040001B0100081B0100081B0100081B01000820
:100050001B0100081B0100081B0100081B01000810
:100060001B0100081B0100081B0100081B01000800
:100070001B0100081B0100081B0100081B010008F0
:100080001B0100081B0100081B0100081B010008E0
:100090001B0100081B0100081B0100081B010008D0
:1000A0001B0100081B0100081B0100081B010008C0
:1000B0001B0100081B0100081B0100081B010008B0
:1000C0001B0100081B0100081B0100081B010008A0
:1000D0001B0100081B0100081B0100081B01000890
:1000E0001B0100081B0100081B010008DFF80CD0F1
:1000F00000F018F800480047C10100080004002083
:100100000648804706480047FEE7FEE7FEE7FEE7B1
:10011000FEE7FEE7FEE7FEE7FEE7FEE7BD010008BB
:10012000ED000008064C074D06E0E06840F00103D2
:1001300094E8070098471034AC42F6D3FFF7DAFF93
:10014000680200087802000840F60C00C4F20100C2
:10015000002101604FF40071C0F800144FF4004119
:10016000C0F800187047000040F60C00C4F201000F
:10017000102101600021C0F800144FF40041C0F8C4
:100180000018704740F60C00C4F201001021016015
:100190004FF40071C0F800140021C0F80018704737
:1001A00081B000900098411E009120B10098411E3E
:1001B00000280091FAD101B070470000704700009C
:1001C00041F21800C4F202000168022241F01C0151
:1001D000016040F60440C4F201000168012362F3AB
:1001E00007110160D0F80014032262F31F71C0F8F8
:1001F000001440F60001C4F201010A6844F24024F0
:1002000063F313420A608268C0F20F0442F4007282
:100210008260D0F8082442F40042C0F80824C8687C
:1002200040F01000C86000BFFFF79EFF2046FFF7B8
:10023000B7FFFFF7A7FF2046FFF7B2FFFFF784FFE6
:100240002046FFF7ADFFEFE702E008C8121F08C124
:10025000002AFAD170477047002001E001C1121F47
:10026000002AFBD17047000078020008000000203F
:08027000000400005802000820
:04000005080000ED02
:00000001FF
